{
  "contractName": "CertificateRegistry",
  "abi": [
    {
      "anonymous": false,
      "inputs": [
        {
          "indexed": true,
          "internalType": "address",
          "name": "student",
          "type": "address"
        },
        {
          "indexed": false,
          "internalType": "string",
          "name": "ipfsHash",
          "type": "string"
        },
        {
          "indexed": false,
          "internalType": "uint256",
          "name": "issueDate",
          "type": "uint256"
        }
      ],
      "name": "CertificateIssued",
      "type": "event"
    },
    {
      "inputs": [
        {
          "internalType": "string",
          "name": "",
          "type": "string"
        }
      ],
      "name": "certificates",
      "outputs": [
        {
          "internalType": "address",
          "name": "student",
          "type": "address"
        },
        {
          "internalType": "string",
          "name": "ipfsHash",
          "type": "string"
        },
        {
          "internalType": "uint256",
          "name": "issueDate",
          "type": "uint256"
        }
      ],
      "stateMutability": "view",
      "type": "function",
      "constant": true
    },
    {
      "inputs": [
        {
          "internalType": "address",
          "name": "_student",
          "type": "address"
        },
        {
          "internalType": "string",
          "name": "_ipfsHash",
          "type": "string"
        }
      ],
      "name": "issueCertificate",
      "outputs": [],
      "stateMutability": "nonpayable",
      "type": "function"
    },
    {
      "inputs": [
        {
          "internalType": "string",
          "name": "_ipfsHash",
          "type": "string"
        }
      ],
      "name": "verifyCertificate",
      "outputs": [
        {
          "internalType": "bool",
          "name": "",
          "type": "bool"
        }
      ],
      "stateMutability": "view",
      "type": "function",
      "constant": true
    }
  ],
  "bytecode": "0x608060405234801561001057600080fd5b506108b5806100206000396000f3fe608060405234801561001057600080fd5b50600436106100415760003560e01c80638b23d875146100465780638f2b91ea14610076578063bb721aab146100a8575b600080fd5b610060600480360381019061005b91906104dd565b6100c4565b60405161006d919061064a565b60405180910390f35b610090600480360381019061008b91906104dd565b6100fe565b60405161009f9392919061060c565b60405180910390f35b6100c260048036038101906100bd9190610489565b6101e6565b005b6000806000836040516100d791906105f5565b908152602001604051809103902060010180546100f3906107c7565b905014159050919050565b6000818051602081018201805184825260208301602085012081835280955050505050506000915090508060000160009054906101000a900473ffffffffffffffffffffffffffffffffffffffff169080600101805461015d906107c7565b80601f0160208091040260200160405190810160405280929190818152602001828054610189906107c7565b80156101d65780601f106101ab576101008083540402835291602001916101d6565b820191906000526020600020905b8154815290600101906020018083116101b957829003601f168201915b5050505050908060020154905083565b600080826040516101f791906105f5565b90815260200160405180910390206001018054610213906107c7565b905014610255576040517f08c379a000000000000000000000000000000000000000000000000000000000815260040161024c90610695565b60405180910390fd5b60405180606001604052808373ffffffffffffffffffffffffffffffffffffffff1681526020018281526020014281525060008260405161029691906105f5565b908152602001604051809103902060008201518160000160006101000a81548173ffffffffffffffffffffffffffffffffffffffff021916908373ffffffffffffffffffffffffffffffffffffffff1602179055506020820151816001019080519060200190610307929190610369565b50604082015181600201559050508173ffffffffffffffffffffffffffffffffffffffff167f7cfe81bfb9e8d3dcb7ad648448aa616885521676a3e99ed538a415d60e19a479824260405161035d929190610665565b60405180910390a25050565b828054610375906107c7565b90600052602060002090601f01602090048101928261039757600085556103de565b82601f106103b057805160ff19168380011785556103de565b828001600101855582156103de579182015b828111156103dd5782518255916020019190600101906103c2565b5b5090506103eb91906103ef565b5090565b5b808211156104085760008160009055506001016103f0565b5090565b600061041f61041a846106e6565b6106b5565b90508281526020810184848401111561043757600080fd5b610442848285610785565b509392505050565b60008135905061045981610868565b92915050565b600082601f83011261047057600080fd5b813561048084826020860161040c565b91505092915050565b6000806040838503121561049c57600080fd5b60006104aa8582860161044a565b925050602083013567ffffffffffffffff8111156104c757600080fd5b6104d38582860161045f565b9150509250929050565b6000602082840312156104ef57600080fd5b600082013567ffffffffffffffff81111561050957600080fd5b6105158482850161045f565b91505092915050565b6105278161073d565b82525050565b6105368161074f565b82525050565b600061054782610716565b6105518185610721565b9350610561818560208601610794565b61056a81610857565b840191505092915050565b600061058082610716565b61058a8185610732565b935061059a818560208601610794565b80840191505092915050565b60006105b3601b83610721565b91507f436572746966696361746520616c7265616479206578697374732e00000000006000830152602082019050919050565b6105ef8161077b565b82525050565b60006106018284610575565b915081905092915050565b6000606082019050610621600083018661051e565b8181036020830152610633818561053c565b905061064260408301846105e6565b949350505050565b600060208201905061065f600083018461052d565b92915050565b6000604082019050818103600083015261067f818561053c565b905061068e60208301846105e6565b9392505050565b600060208201905081810360008301526106ae816105a6565b9050919050565b6000604051905081810181811067ffffffffffffffff821117156106dc576106db610828565b5b8060405250919050565b600067ffffffffffffffff82111561070157610700610828565b5b601f19601f8301169050602081019050919050565b600081519050919050565b600082825260208201905092915050565b600081905092915050565b60006107488261075b565b9050919050565b60008115159050919050565b600073ffffffffffffffffffffffffffffffffffffffff82169050919050565b6000819050919050565b82818337600083830152505050565b60005b838110156107b2578082015181840152602081019050610797565b838111156107c1576000848401525b50505050565b600060028204905060018216806107df57607f821691505b602082108114156107f3576107f26107f9565b5b50919050565b7f4e487b7100000000000000000000000000000000000000000000000000000000600052602260045260246000fd5b7f4e487b7100000000000000000000000000000000000000000000000000000000600052604160045260246000fd5b6000601f19601f8301169050919050565b6108718161073d565b811461087c57600080fd5b5056fea26469706673582212200bad9b0e607f4f76f2defbc627533464390f9b8e15c8ce6a59abc2d06f2d843b64736f6c63430008000033",
  "immutableReferences": {},
  "source": "// contracts/CertificateRegistry.sol\r\npragma solidity ^0.8.0;\r\n\r\ncontract CertificateRegistry {\r\n    struct Certificate {\r\n        address student;\r\n        string ipfsHash;\r\n        uint256 issueDate;\r\n    }\r\n\r\n    event CertificateIssued(\r\n        address indexed student,\r\n        string ipfsHash,\r\n        uint256 issueDate\r\n    );\r\n\r\n    mapping(string => Certificate) public certificates;\r\n\r\n    function issueCertificate(\r\n        address _student,\r\n        string memory _ipfsHash\r\n    ) public {\r\n        require(\r\n            bytes(certificates[_ipfsHash].ipfsHash).length == 0,\r\n            \"Certificate already exists.\"\r\n        );\r\n\r\n        certificates[_ipfsHash] = Certificate({\r\n            student: _student,\r\n            ipfsHash: _ipfsHash,\r\n            issueDate: block.timestamp\r\n        });\r\n\r\n        emit CertificateIssued(_student, _ipfsHash, block.timestamp);\r\n    }\r\n\r\n    function verifyCertificate(\r\n        string memory _ipfsHash\r\n    ) public view returns (bool) {\r\n        return bytes(certificates[_ipfsHash].ipfsHash).length != 0;\r\n    }\r\n}\r\n",
  "sourcePath": "E:\\.Pratyush\\HackX\\server\\blockchain\\contracts\\CertificateRegistry.sol",
  "compiler": {
    "name": "solc",
    "version": "0.8.0+commit.c7dfd78e.Emscripten.clang"
  },
  "schemaVersion": "3.4.16",
  "updatedAt": "2024-09-05T18:35:05.376Z",
  "networkType": "ethereum",
  "devdoc": {
    "kind": "dev",
    "methods": {},
    "version": 1
  },
  "userdoc": {
    "kind": "user",
    "methods": {},
    "version": 1
  }
}